S019000073696D706C655F63616C63756C61746F722E73726563F8
S11300000C9464000C9479000C9479000C9479009D
S11300100C9479000C9479000C9479000C94790078
S11300200C9479000C9479000C9479000C94790068
S11300300C9479000C9479000C9479000C94790058
S11300400C9479000C9479000C9479000C94790048
S11300500C947900D104D104B304D104B304D104C1
S1130060C504C504C504C504C504C504C504C50444
S1130070C504C504B304B304B304DD04B304B30476
S1130080B304B304B304B304B304B304B304B304B4
S1130090B304B304B304B304B304B304B304B304A4
S11300A0B304B304B304B304B304B304B304B30494
S11300B0B304B304B304B304B304B304B304B30484
S11300C0B304B304B304EC0411241FBECFE5D8E099
S11300D0DEBFCDBF10E0A0E6B0E0E8EBFAE002C07E
S11300E005900D92A838B107D9F70E948C040C949E
S11300F05A050C940000EF92FF920F931F93CF9335
S1130100DF93EC0110E000E047C02A3219F02F32EF
S1130110E9F041C0FC013197EC0FFD1F208130E074
S1130120205331090196DE01A80FB91F4C9150E00C
S113013040535109249F202D1124205D208380E306
S11301408C93F70180831F5F00E025C09C012F5F23
S11301503F4F2C0F3D1FF9016081603339F40E9439
S1130160CC0380E790E00E94590415C00197FE017A
S1130170E80FF91F808190E0C09770E06053710927
S11301800E94F704605D608380E3F9018083F701D6
S113019080831F5F00E00F5F802F90E07E01E80EF8
S11301A0F91EF70120812D3309F0AFCF20E027C0DD
S11301B03B3271F03D3211F5FE01E80FF91F9181D8
S11301C080E6891B8C9380E389831F5F20E016C03F
S11301D09C01215031090196AE01480F591FFA01C3
S11301E090812C0F3D1FF9018081890F80538083FA
S11301F080E3FA0180838C931F5F20E02F5F822FBE
S113020090E0DE01A80FB91F3C913D3389F611300F
S113021091F4888190E0C0970E946F0415C0FE019C
S1130220E40FF51F208130E020533109820F931F22
S11302304F5F5F4F04C040E050E080E090E0443006
S113024051056CF30E946F04DF91CF911F910F91C0
S1130250FF90EF900895813001F130F08230B1F1D8
S1130260833009F44CC00895413059F42AB381E035
S113027090E002C0880F991F6A95E2F7822B8ABB2F
S113028008952AB381E090E002C0880F991F6A950F
S1130290E2F7809582238ABB0895413059F427B34D
S11302A081E090E002C0880F991F6A95E2F7822BE3
S11302B087BB089527B381E090E002C0880F991F9F
S11302C06A95E2F78095822387BB0895413059F4FB
S11302D024B381E090E002C0880F991F6A95E2F789
S11302E0822B84BB089524B381E090E002C0880F80
S11302F0991F6A95E2F78095822384BB0895413063
S113030059F421B381E090E002C0880F991F6A95E7
S1130310E2F7822B81BB089521B381E090E002C013
S1130320880F991F6A95E2F78095822381BB08950F
S1130330843008F072C0683008F06FC0423008F0B2
S11303406CC0813001F130F08230B1F1833009F4B6
S11303504CC00895413059F42BB381E090E002C0C1
S1130360880F991F6A95E2F7822B8BBB08952BB3F4
S113037081E090E002C0880F991F6A95E2F78095AA
S113038082238BBB0895413059F428B381E090E077
S113039002C0880F991F6A95E2F7822B88BB0895E3
S11303A028B381E090E002C0880F991F6A95E2F7B4
S11303B08095822388BB0895413059F425B381E0A8
S11303C090E002C0880F991F6A95E2F7822B85BBE3
S11303D0089525B381E090E002C0880F991F6A95C3
S11303E0E2F78095822385BB0895413059F422B306
S11303F081E090E002C0880F991F6A95E2F7822B92
S113040082BB089522B381E090E002C0880F991F57
S11304106A95E2F78095822382BB08958430C0F503
S11304206830B0F54115510599F1813089F028F013
S11304308230C9F0833011F1089589B390E002C08D
S1130440959587956A95E2F78170FA0180830895FE
S113045086B390E002C0959587956A95E2F781701E
S1130460FA018083089583B390E002C0959587953F
S11304706A95E2F78170FA018083089580B390E071
S113048002C0959587956A95E2F78170FA01808399
S113049008958430A8F5683098F5813089F028F003
S11304A08230C9F0833011F108952BB381E090E0DC
S11304B002C0880F991F6A95E2F7822B8BBB0895BF
S11304C028B381E090E002C0880F991F6A95E2F793
S11304D0822B88BB089525B381E090E002C0880F89
S11304E0991F6A95E2F7822B85BB089522B381E0B8
S11304F090E002C0880F991F6A95E2F7822B82BBB5
S1130500089540E060E082E00E942B0140E061E059
S113051082E00E942B0140E062E082E00E942B0115
S113052040E063E082E00E942B0141E060E083E070
S11305300E942B0141E061E083E00E942B0141E035
S113054062E083E00E942B0141E063E083E00E94CB
S11305502B0160E082E00E94490261E082E00E9497
S1130560490262E082E00E94490263E082E00E9464
S1130570490208957F928F929F92AF92BF92CF9239
S1130580DF92EF92FF920F931F93CF93DF93CDB738
S1130590DEB769970FB6F894DEBF0FBECDBF0097E4
S11305A009F46CC05C018FEFF50180831D8A21E0A2
S11305B02E8B92E09F8B83E0888F198A2A8B9B8BEA
S11305C08C8B80E1E0E6F0E0DE01119601900D9263
S11305D08A95E1F7912C712C4DC0C92CD12CE5E101
S11305E0F0E0EC0FFD1FEC0DFD1D808040E0682D58
S11305F083E00E94980110E032C0E12EF12CE1E189
S1130600F0E0EC0FFD1FEE0DFF1D0081AE01475E13
S11306105F4F602F82E00E940E02898D81111EC0FF
S113062007C0AE01475E5F4F602F82E00E940E025A
S1130630898D8823B1F3EE0CFF1CEE0CFF1C81E0C6
S113064090E08C0F9D1FE80EF91EF701EC0DFD1DC7
S11306508081F50180837724739403C01F5F143075
S113066060F2F1E07F1651F041E0682D83E00E94D2
S11306709801939483E0891508F0AFCF69960FB67B
S1130680F894DEBF0FBECDBFDF91CF911F910F91C4
S1130690FF90EF90DF90CF90BF90AF909F908F909E
S11306A07F900895FF920F931F93CF93DF9300D011
S11306B000D0CDB7DEB7F82E198281E08A8382E0BC
S11306C08B8383E08C8300E010E023C08F2D90E0C7
S11306D0002E02C0959587950A94E2F780FF0CC01E
S11306E0E1E0F0E0EC0FFD1FE00FF11F41E060815D
S11306F081E00E9498010BC0E1E0F0E0EC0FFD1FE7
S1130700E00FF11F40E0608181E00E9498010F5FDB
S11307101F4F04301105D4F20F900F900F900F90DB
S1130720DF91CF911F910F91FF900895CF93C82F20
S113073040E064E080E00E94980140E063E080E0F3
S11307400E9498018C2F82958F700E94520341E081
S113075065E080E00E94980189EF90E00197F1F74D
S113076000C0000040E065E080E00E9498018C2F0A
S11307700E94520341E065E080E00E94980189EF05
S113078090E00197F1F700C0000040E065E080E0F0
S11307900E949801CF91089581E00E9496030895E4
S11307A041E063E080E00E942B0141E064E080E0EE
S11307B00E942B0141E065E080E00E942B0141E0B2
S11307C060E081E00E942B0141E061E081E00E9451
S11307D02B0141E062E081E00E942B0141E063E0F3
S11307E081E00E942B018FE097E20197F1F700C0AE
S11307F0000040E064E080E00E94980140E063E093
S113080080E00E94980182E00E94520341E065E08A
S113081080E00E94980189EF90E00197F1F700C011
S1130820000040E065E080E00E94980188E20E94B8
S113083096038EE00E94960386E00E94960381E070
S11308400E9496030895CF93C82F40E064E080E0AF
S11308500E94980141E063E080E00E9498018C2F9F
S113086082958F700E94520341E065E080E00E940F
S1130870980189EF90E00197F1F700C0000040E093
S113088065E080E00E9498018C2F0E94520341E0B1
S113089065E080E00E94980189EF90E00197F1F70C
S11308A000C0000040E065E080E00E949801CF9124
S11308B008950F931F93CF93DF938C01C0E0D0E092
S11308C003C00E9423042196F801EC0FFD1F8081D0
S11308D08111F7CFDF91CF911F910F910895CF939D
S11308E0DF93CDB7DEB760970FB6F894DEBF0FBEC7
S11308F0CDBF4AE0BE016F5F7F4F0E942505CE0148
S113090001960E94590460960FB6F894DEBF0FBE9C
S1130910CDBFDF91CF910895CF93DF93CDB7DEB7ED
S113092062970FB6F894DEBF0FBECDBFFE013196BD
S113093081E1DF011D928A95E9F78FEF8A8B0E948E
S1130940D0030E94810286E790E00E945904BFE32D
S11309502DE083E0B15020408040E1F700C000006A
S11309600E94CC0310E0CE0142960E94BA028A890A
S11309708F3FC9F3482F50E0FA01BA97EA33F105E3
S113098090F7E65DFF4F0C940B050E942304E1E011
S1130990F0E0EC0FFD1FE10FF11D8A8980831F5FDA
S11309A0E2CF0E942304E1E0F0E0EC0FFD1FE10F31
S11309B0F11D8A8980831F5FD6CF0E942304E1E062
S11309C0F0E0EC0FFD1FE10FF11D8A898083CE0159
S11309D001960E947B00C7CF0E94CC03FE01319692
S11309E081E1DF011D928A95E9F710E0BCCF97FB06
S11309F0072E16F4009407D077FD09D00E94110544
S1130A0007FC05D03EF4909581959F4F089570950D
S1130A1061957F4F0895EE0FFF1F0590F491E02D2F
S1130A200994AA1BBB1B51E107C0AA1FBB1FA61731
S1130A30B70710F0A61BB70B881F991F5A95A9F783
S1130A4080959095BC01CD010895BB274A3031F4BF
S1130A50992322F4BDE2909581959F4F0C94310522
S1130A60BB27FB015527AA27880F991FAA1FA41784
S1130A7010F0A41B83955051B9F7A05DAA3308F078
S1130A80A95DA193009779F7B111B1931192CB01AC
S1130A900C944A05DC01FC01672F71917723E1F77F
S1130AA0329704C07C916D9370836291AE17BF0737
S10B0AB0C8F30895F894FFCF88
S1130AB83738392F3435362A3132332D63303D2BCC
S1130AC84552524F520073696D706C652063616CB6
S10B0AD863756C61746F720018
S9030000FC
